:020000040800F2
:100000000000022061300008CD040008D10400087F
:10001000D5040008D9040008DD0400080000000031
:10002000000000000000000000000000E5040008DF
:10003000E104000800000000E9040008ED040008E5
:10004000A9300008A9300008A9300008A93000082C
:10005000A9300008A9300008A9300008A93000081C
:10006000A9300008A9300008A9300008A93000080C
:10007000A9300008A9300008A9300008A9300008FC
:10008000A9300008A9300008A9300008A9300008EC
:10009000A9300008A9300008A9300008A9300008DC
:1000A000A9300008A9300008A9300008A9300008CC
:1000B000A9300008A9300008A9300008A9300008BC
:1000C000A9300008A9300008A9300008A9300008AC
:1000D000A9300008A93000085D2E0008A9300008EA
:1000E000A9300008A9300008A9300008A93000088C
:1000F000A9300008A9300008A9300008A93000087C
:10010000A9300008A9300008A9300008A93000086B
:10011000A9300008A9300008A9300008A93000085B
:10012000A9300008A9300008A9300008A93000084B
:10013000A9300008A9300008A9300008A93000083B
:10014000A9300008A9300008A9300008A93000082B
:10015000A9300008A9300008A9300008A93000081B
:10016000A9300008A9300008A9300008A93000080B
:10017000A9300008A9300008A9300008A9300008FB
:08018000A9300008A9300008B5
:1001880010B5054C237833B9044B13B10448AFF3C9
:1001980000800123237010BD6004002000000000CF
:1001A80088330008084B10B51BB108480849AFF35D
:1001B80000800848036803B910BD074B002BFBD02B
:1001C800BDE81040184700BF000000008833000851
:1001D800640400205C04002000000000154B002B84
:1001E80008BF134B9D46A3F5803A00218B460F4666
:1001F8001348144A121A02F08DFF0F4B002B00D03F
:1002080098470E4B002B00D098470020002104008F
:100218000D000D48002802D00C4803F03DF802F00C
:1002280051FF2000290002F0E1FE02F03BFF00BF71
:1002380000000800000000000000000000000000AE
:100248006004002010050020A1320008AD3200082B
:1002580082B00190019B2BB1019B013B0193019B53
:10026800002BF9D102B070472DE9F0433548364FDD
:10027800DFF8E090DFF8E080344E9DB0012100F017
:10028800B7FB4FF48060012100F0E2FB4FF0806380
:1002980000244FF4006C4FF4005E01254FF4807287
:1002A80038460D930DA94FF40033CDF850C0CDF862
:1002B80054E016921793CDF83890CDF83C801094FE
:1002C8001294139418941A941B941195199502F08A
:1002D80009F93846294602F04FF904220DEB0201CC
:1002E80003231B4801928DF808308DF80B4000F06D
:1002F80087F903A8039404940594069402F062FA1B
:10030800304607A907948DF820408DF821500994AC
:100318000B948DF8305002F023FA23462A463046D3
:100328000C2102F0A1FA3046294602F027FB30469C
:10033800294602F019FB3046294602F05DFA1DB045
:10034800BDE8F08304004000106402400022014030
:10035800000802404C2201407C040020364B3748FC
:100368001A68002142F001021A6099601A6822F0A6
:10037800847222F480321A6058601A6882B022F4BB
:1003880080221A60D960009101911A6842F4803283
:100398001A601A4603E0009BB3F5A06F09D01368F2
:1003A80003F400330193009B01330093019B002B5E
:1003B800F1D0214B1B6813F4003318BF01230193BC
:1003C800019B012B05D01E4B4FF000629A6002B0D2
:1003D8007047194B1B491A6C1B4842F080521A642B
:1003E8000A6842F480420A609A689A609A6842F4FD
:1003F80000429A609A6842F4A0529A6058601A685B
:1004080042F080721A601A4611680B4B8901FBD5BD
:100418000E4A40F2056111609A6822F003029A6060
:100428009A6842F002029A601A46936803F00C0335
:10043800082BFAD1C7E700BF00380240103000246B
:1004480000ED00E00070004008544007003C024006
:100458001848836803F00C03042B28D0082B09D014
:10046800154B144A15499268C2F303128A5CD340AB
:100478000B6170474368416813F4800F436818BFE5
:100488000F4801F03F020CBF0B49B0FBF2F1C3F378
:10049800881308BFB1FBF2F101FB03F2054B5B685F
:1004A800C3F3014301335B00B2FBF3F3D9E7044B19
:1004B800D7E700BF003802400024F4000400002001
:1004C80000127A00704700BFFEE700BFFEE700BFDA
:1004D800FEE700BFFEE700BF704700BF704700BFE0
:1004E800704700BF704700BF08B53C4B984224D006
:1004F8003B4B98422BD03B4B984232D03A4B9842D8
:1005080039D03A4B984240D0394B984247D0394B72
:1005180098424ED0384B984255D0384B984200D02C
:1005280008BD4FF48070012100F09EFA4FF48070EE
:100538000021BDE8084000F097BA0120014600F00C
:1005480093FA01200021BDE8084000F08DBA02208E
:10055800012100F089FA02200021BDE8084000F0DE
:1005680083BA0420012100F07FFA04200021BDE8AD
:10057800084000F079BA0820012100F075FA082037
:100588000021BDE8084000F06FBA1020012100F0FA
:100598006BFA10200021BDE8084000F065BA202061
:1005A800012100F061FA20200021BDE8084000F098
:1005B8005BBA4020012100F057FA40200021BDE835
:1005C800084000F051BA8020012100F04DFA802047
:1005D8000021BDE8084000F047BA00BF0000024013
:1005E8000004024000080240000C024000100240D3
:1005F8000014024000180240001C02400020024083
:1006080000222DE9F0431346D1F800E001274FF00E
:10061800030C04E00133102B02F1020228D007FA80
:1006280003F404EA0E05A542F4D1D0F800800E794F
:100638000CFA02F4E44304EA0808C0F80080D0F891
:10064800008006FA02F9013E49EA0808012EC0F8BE
:1006580000800FD9C568CE792C40C460C56806FAF9
:1006680002F401332C43102BC46002F10202D6D1EC
:10067800BDE8F083D0F8089091F805808E7904EAF7
:100688000909C0F80890D0F8089008FA02F848EA72
:100698000908C0F80880D0F8048028EA05054560F4
:1006A800D0F8048006FA03F5ADB245EA08054560BE
:1006B800D0E700BF00234FF6FF7202600371437159
:1006C8008371C371704700BF82B04FF480330193C8
:1006D800019B0B430193019BC361C161019BC361F2
:1006E800C3690193C369019302B070470369194252
:1006F80014BF012000207047006980B2704700BF16
:100708004369194214BF012000207047406980B234
:10071800704700BF01837047418370470AB941831E
:1007280070470183704700BF416170474369594072
:1007380041617047CB0800EB830001F0070110B45A
:100748008900046A0F238B4024EA03030362036AC7
:100758005DF8044B8A401343036270470A4B0B4809
:100768001A68002142F001021A6099601A6822F0A2
:10077800847222F480321A6058601A6822F4802247
:100788001A60D960704700BF00380240103000245A
:10079800024B00221A701870704700BF02380240DE
:1007A80082B000230A4A019302E0B3F5A06F08D093
:1007B800136813F4003F019B03F101030193019BAC
:1007C800F3D0034B1868C0F3404002B0704700BF35
:1007D80000380240034A136823F0F80343EAC000D4
:1007E8001060704700380240014B1860704700BF26
:1007F80000004742064B002201281A701A7005D0E3
:10080800042802D105221A70704770471870704783
:1008180070380240014B1860704700BF800E474295
:1008280030B4029C064D40EA046001435B08013B7A
:1008380041EA821242EA0340686030BC704700BF58
:1008480000380240014B1860704700BF6000474203
:100858000907034B41EA8010C3F88400704700BFC2
:1008680000380240014B1860704700BF68004742DB
:10087800014B1860704700BF4C004742034A936819
:1008880023F0EC6319430843906070470038024036
:10089800034A936823F078431943084390607047EC
:1008A80000380240034A936823F00303184390601A
:1008B800704700BF00380240024B986800F00C00F7
:1008C800704700BF00380240034A936823F0F003E2
:1008D80018439060704700BF00380240034A93688D
:1008E80023F4E05318439060704700BF003802407B
:1008F800034A936823F4604343EAC000906070475A
:100908000038024010B4214CA36803F00C03042BF8
:100918001BD0082B1CD01E4B03601C4A1D49946831
:10092800C4F303140C5DE34043609468C4F3822469
:100938000C5D23FA04F4846092685DF8044BC2F3FA
:1009480042328A5CD340C3607047134B0360E4E7CC
:100958006368616813F4800F636818BF0E4C01F078
:100968003F020CBF0A49B4FBF2F1C3F3881308BF76
:10097800B1FBF2F101FB03F2044B5B68C3F30143E3
:1009880001335B00B2FBF3F30360C6E700380240B3
:100998000024F4001800002000127A0000F44073CC
:1009A800B3F5407F09D108498B6820F0704223F4E1
:1009B800F81322F4407213438B60034A136FC0F399
:1009C8000B0018431067704700380240014B18604D
:1009D800704700BF3C0E4742014B1860704700BF8C
:1009E800400E4742014B1860704700BF5C01474208
:1009F800044A136B19B923EA0000106370471843BF
:100A08001063704700380240044A536B19B923EA4F
:100A18000000506370471843506370470038024025
:100A2800044A936B19B923EA00009063704718438E
:100A38009063704700380240044A136C19B923EADE
:100A48000000106470471843106470470038024073
:100A5800044A536C19B923EA0000506470471843DC
:100A68005064704700380240044A136919B923EAF0
:100A78000000106170471843106170470038024049
:100A8800044A536919B923EA0000506170471843B2
:100A98005061704700380240044A936919B923EA43
:100AA8000000906170471843906170470038024019
:100AB800044A136A19B923EA000010627047184300
:100AC8001062704700380240044A536A19B923EA91
:100AD8000000506270471843506270470038024067
:100AE800044A136D19B923EA0000106570471843CA
:100AF8001065704700380240044A536D19B923EA5B
:100B08000000506570471843506570470038024030
:100B1800044A936D19B923EA000090657047184399
:100B28009065704700380240044A136E19B923EAE9
:100B3800000010667047184310667047003802407E
:100B4800044A536E19B923EA0000506670471843E7
:100B58005066704700380240044A137819B923EAEE
:100B68000000107070471843107070470D3802402D
:100B78004309012B0BD0022B094B0CBF1A6F5A6F7C
:100B880000F01F0322FA03F000F001007047044B45
:100B98001A6800F01F0322FA03F000F00100704702
:100BA80000380240024A536F43F08073536770471E
:100BB80000380240034BDB68184214BF01200020B4
:100BC800704700BF00380240014B1870704700BFE3
:100BD8000E38024008B5604B984235D0B0F1804FCE
:100BE8003CD05E4B984243D05D4B98424AD05D4B17
:100BF800984251D05C4B984258D05C4B98425FD099
:100C08005B4B984266D05B4B98426DD05A4B9842EA
:100C180076D05A4B98427FD0594B984200F0888042
:100C2800584B984200F08E80574B984200D008BD30
:100C38004FF480700121FFF73BFF4FF480700021D3
:100C4800BDE80840FFF734BF01200146FFF73CFF2D
:100C580001200021BDE80840FFF736BF012001460A
:100C6800FFF726FF01200021BDE80840FFF720BF5D
:100C780002200121FFF71CFF02200021BDE80840E7
:100C8800FFF716BF04200121FFF712FF04200021FF
:100C9800BDE80840FFF70CBF08200121FFF708FF57
:100CA80008200021BDE80840FFF702BF10200121FD
:100CB800FFF7FEFE10200021BDE80840FFF7F8BE50
:100CC80020200121FFF7F4FE20200021BDE8084084
:100CD800FFF7EEBE02200121FFF7F6FE02200021F9
:100CE800BDE80840FFF7F0BE4FF480300121FFF760
:100CF800EBFE4FF480300021BDE80840FFF7E4BE6A
:100D08004FF400300121FFF7DFFE4FF400300021DF
:100D1800BDE80840FFF7D8BE4FF480200121FFF757
:100D2800D3FE4FF480200021BDE80840FFF7CCBE79
:100D380040200121FFF7BCFE40200021BDE808400B
:100D4800FFF7B6BE80200121FFF7B2FE8020002108
:100D5800BDE80840FFF7ACBE0000014000040040B9
:100D680000080040000C0040001000400014004043
:100D78000004014000400140004401400048014097
:100D880000180040001C004000200040224A038850
:100D980090429BB212D002F5806290420ED0B0F120
:100DA800804F0BD0A2F58032904207D002F58062C6
:100DB800904203D002F58062904203D14A8823F022
:100DC80070031343154A90421ED002F58062904288
:100DD8001AD00A8970B423F440730F4C4E680D88FA
:100DE8009BB21343A0420380C662058506D00C4B14
:100DF800984203D00123838270BC70478B7A0386A4
:100E08000123838270BC704703800B884A68C262E2
:100E180003850123838270470000014000100040D1
:100E28000004014000234FF0FF3242600380038139
:100E380043808372704700BF01858282704700BF7C
:100E4800038823F070031B041B0C194301807047AF
:100E580041627047C1627047406A7047008D80B236
:100E6800704700BF038829B923F002031B041B0C39
:100E7800038070479BB243F002030380704700BFB2
:100E8800038829B923F004031B041B0C0380704753
:100E98009BB243F004030380704700BF038829B95D
:100EA80023F080031B041B0C038070479BB243F0A4
:100EB80080030380704700BF038823F008031B04E6
:100EC8001B0C038003889BB219430180704700BF45
:100ED800038823F440731B041B0C038003889BB214
:100EE80019430180704700BF038829B923F0010323
:100EF8001B041B0C038070479BB243F00103038063
:100F0800704700BFF0B5048CB1F802C08B890F8818
:100F18001B4E24F001042404240C0484058CB0F82E
:100F280004E0048B25F0020524F073022D042D0C37
:100F38004CEA030312042B43120CB0429BB21FFA73
:100F48008EF442EA070208D00E4DA84205D08968FF
:100F58008480028341630384F0BDCE89B1F812E036
:100F68000D8A8F8823F0080324F4407433434EEA33
:100F7800050523F004032C433B43A4B2E7E700BF75
:100F88000000014000040140F0B5058C0C88B1F860
:100F98000CC0B1F802E01E4E25F010052D042D0CF2
:100FA8000584028C8788058B22F020031B0425F416
:100FB800E6421B0C120443EA0C13120C43EA0E130C
:100FC80042EA0422B0429BB2BDB294B208D0114AA0
:100FD800904205D08A688580048382630384F0BDCB
:100FE80023F08002CB89B1F810E08F884E8A92B244
:100FF80042EA031225F440654FF6BF73134045EAF1
:101008008E0543EA071345EA86059BB2ADB2E1E7D0
:101018000000014000040140F0B5058CB1F80CC097
:10102800B1F802E00C881E4F25F480752D042D0CB4
:101038000584028C8688858B22F400731B0425F0B6
:1010480073021B0C43EA0C23120443EA0E23120C0E
:10105800B8429BB2B5B244EA020408D0114A9042A1
:1010680005D08A6885808483C2630384F0BD23F435
:101078000062CB89B1F810E08F884E8A92B242EABA
:10108800032225F440554FF6FF33134045EA0E1569
:1010980043EA072345EA06159BB2ADB2E1E700BF74
:1010A8000000014000040140028CB1F802C022F4A3
:1010B80080521204120C2DE9F041B1F80C80B1F8FD
:1010C80000E00284058C8788828B124E25F4005438
:1010D80022F4E6432404240C1B0444EA08341B0CC1
:1010E80044EA0C3443EA0E23B042A4B2BAB29BB22B
:1010F80009D0094DA84206D089688280838301649B
:101108000484BDE8F0810D8A22F4804242EA851207
:1011180092B2F1E70000014000040140002303807F
:101128004380838083608381C381038243827047C5
:1011380010B4048C0123A4B28B4024EA030321F0E9
:101148000804038418307CB10439C1F34E0148F611
:10115800FF730C5823400B5012020B585DF8044BD8
:1011680092B21A430A50704749084FF68F73445891
:101178002340435043585DF8044B1A43425070478C
:101188004163704781637047C1637047016470476A
:10119800038B23F070031B041B0C19430183704756
:1011A800038B23F4E0431B041B0C43EA012189B29F
:1011B80001837047838B23F070031B041B0C1943B6
:1011C80081837047838B23F4E0431B041B0C43EAA1
:1011D800012189B281837047038B23F008031B0424
:1011E8001B0C194301837047038B23F400631B0412
:1011F8001B0C43EA012189B201837047838B23F0DA
:1012080008031B041B0C194381837047838B23F449
:1012180000631B041B0C43EA012189B281837047D8
:10122800038B23F004031B041B0C19430183704731
:10123800038B23F480631B041B0C43EA012189B24E
:1012480001837047838B23F004031B041B0C194391
:1012580081837047838B23F480631B041B0C43EA50
:10126800012189B281837047038B23F080031B041B
:101278001B0C194301837047038BC3F30E0343EA26
:10128800012189B201837047838B23F080031B04FB
:101298001B0C194381837047838BC3F30E0343EA06
:1012A800012189B281837047038C23F002031B0458
:1012B8001B0C194301847047038C23F008031B049B
:1012C8001B0C194301847047038C23F020031B0473
:1012D8001B0C43EA011189B201847047038C23F087
:1012E80080031B041B0C43EA011189B20184704777
:1012F800038C23F400731B041B0C43EA012189B2FD
:1013080001847047038C23F400631B041B0C43EA1D
:10131800012189B201847047038C23F400531B0414
:101328001B0C43EA013189B20184704710B4048C64
:101338000123A4B28B4024EA03030384038C5DF8E1
:10134800044B8A4013439BB20384704710B4048C47
:101358000423A4B28B4024EA03030384038C5DF8BE
:10136800044B8A4013439BB2038470470B88F0B543
:10137800002B32D0042B57D0082B00F08380028C2E
:101388004F88B1F804E00E89CD8822F48052120407
:10139800120C0284848B028C24F4407122F40053D2
:1013A80009055B04090D5B0C41EA0E2143EA07338A
:1013B80041EA06319BB243F4805389B281830384A6
:1013C800828B22F440621204120C8283838B9BB2BC
:1013D80043EA05239BB28383F0BD028C4E888D8837
:1013E8000B89CC8822F001021204120C0284028BB1
:1013F800018C92B222F0F30221F00A0142EA0313AF
:10140800090446F001029BB2090C2B4311430383E4
:101418000184038B23F00C031B041B0C0383038B35
:101428009BB21C430483F0BD058C4F888E88B1F8AD
:1014380008E0CC8825F010010904090C0184028B0E
:10144800018C22F440731B051B0D8AB243EA0E334C
:1014580022F0A0029BB242EA071243EA062392B2A4
:101468009BB242F0100203830284038B23F440638F
:101478001B041B0C0383038B9BB243EA04239BB21C
:101488000383F0BD068C4F888D880A89CC8826F4A2
:1014980080710904090C0184818B038C89B29BB289
:1014A80021F0F30123F4206341EA021243EA0723FF
:1014B80092B29BB243F480732A4382830384838B62
:1014C80023F00C031B041B0C8383838B9BB21C43EC
:1014D8008483F0BD00230122828003804380C3807F
:1014E80003817047B1F802C00B88F0B5B1F804E089
:1014F800BCF1000F0CBF02240024BEF1010F0CBF89
:1015080002250125002B4BD0038C0E89C98823F0B6
:1015180010031B041B0C0384028B078C22F44073FA
:101528001B051B0DBAB243EA063322F0A0029BB298
:1015380042EA0C1243EA0E2392B29BB242F0100226
:1015480003830284038B23F440631B041B0C038373
:10155800038B9BB243EA01239BB20383038C23F0E2
:1015680001031B041B0C0384038B028C9BB223F026
:10157800F30392B243EA061622F00A0343F001038A
:10158800B6B21C432E4306830484038B23F00C035A
:101598001B041B0C0383038B9BB219430183F0BD0F
:1015A800038C0F89CE8823F001031B041B0C0384D2
:1015B800018B038C89B221F0F30123F00A0341EA7D
:1015C80007111B044CF0010289B21B0C134341EABA
:1015D8000E0EA0F818E00384038B23F00C031B0401
:1015E8001B0C0383038B9BB233430383038C23F0CD
:1015F80010031B041B0C0384028B018C22F4407320
:101608001B051B0D8AB243EA073322F0A0029BB2E6
:1016180042F0100243EA052542EA041405830484D3
:10162800038B23F440631B041B0C0383038B9BB2C3
:1016380043EA0626B6B20683F0BD00BF406B70478A
:10164800806B7047C06B7047006C7047038B23F04A
:101658000C031B041B0C0383038B9BB219430183EC
:10166800704700BF038B23F440631B041B0C0383E8
:10167800038B9BB243EA012189B20183704700BF03
:10168800838B23F00C031B041B0C8383838B9BB27B
:1016980019438183704700BF838B23F440631B0485
:1016A8001B0C8383838B9BB243EA012189B281831C
:1016B800704700BFF0B50B88B1F802E08F88CE887C
:1016C8000D894C898A894EEA03033B4333432B43F4
:1016D800234313439BB2A0F84430F0BD002303809A
:1016E80043808380C380038143818381704700BF27
:1016F800B0F8443021B9C3F30E03A0F84430704762
:101708006FEA43436FEA53439BB2A0F844307047F3
:10171800838829B923F004031B041B0C83807047BA
:101728009BB243F004038380704700BF838829B9C4
:1017380023F001031B041B0C838070479BB243F00A
:1017480001038380704700BF83899BB21AB923EADB
:1017580001018181704719438181704781827047F7
:10176800038A194214BF012000207047C94389B277
:1017780001827047038A828911EA030092B203D07A
:10178800114214BF01200020704700BFC94389B22D
:10179800018270470A43A0F84820704783899BB2AA
:1017A8001AB923EA01018181704719438181704781
:1017B800838829B923F008031B041B0C8380704716
:1017C8009BB243F008038380704700BF038923F06E
:1017D80007031B041B0C0381704700BF038923F018
:1017E80070031B041B0C1943018103899BB243F04E
:1017F80007030381704700BF602930B4048C24D0EC
:1018080024F001042404240C0484048B058CA4B261
:1018180024F0F304ADB244F0010425F00A0544EACB
:10182800031345F001049BB2224303830284038916
:1018380023F070031B041B0C0B43038103899BB229
:1018480043F00703038130BC704724F010042404DC
:10185800240C0484048B058C24F440742405ADB254
:10186800240D25F0A00544F4807445F0100544EAE1
:10187800033345EA02129BB292B203830284D6E78D
:1018880010B4048942EA0323E4B223439BB2194308
:10189800018103895DF8044B23F077031B041B0CBB
:1018A80043F077030381704710B4048942EA0323A5
:1018B800E4B223439BB21943018103895DF8044BC9
:1018C8009BB243F480430381704700BF038923F030
:1018D80070031B041B0C194301817047838823F094
:1018E80070031B041B0C838083889BB2194381807F
:1018F800704700BF038923F007031B041B0C0381F7
:1019080003899BB219430181704700BF038923F003
:1019180080031B041B0C038103899BB219430181BB
:10192800704700BF10B40489E4B221430A4342EA75
:10193800032399B201815DF8044B704770B406899E
:10194800048B058C24F4407424F00304ADB225F014
:10195800220526F0070624042A433604240C360CF4
:1019680044F4807442EA0313314344F001049AB208
:1019780001810483028470BC704700BF838829B941
:1019880023F080031B041B0C838070479BB243F039
:1019980080038380704700BFA0F85010704700BFD5
:1019A80008B52B4B984219D02A4B984220D02A4B85
:1019B800984229D0294B984232D0294B98423BD0A3
:1019C800284B984200D008BD20200121FFF77CF861
:1019D80020200021BDE80840FFF776B8102001213B
:1019E800FFF772F810200021BDE80840FFF76CB837
:1019F8004FF400300121FFF75BF84FF4003000216D
:101A0800BDE80840FFF754B84FF480200121FFF7E4
:101A18004FF84FF480200021BDE80840FFF748B890
:101A28004FF400200121FFF743F84FF40020002174
:101A3800BDE80840FFF73CB84FF480100121FFF7DC
:101A480037F84FF480100021BDE80840FFF730B8A0
:101A5800001001400044004000480040004C004095
:101A68000050004000140140028A8B88F0B592B201
:101A7800CE880F8904460D4622F440523243A88985
:101A880049892282A2893B4392B20B4322F4B05285
:101A980022F00C029BB21343A381A38A9BB223F4C6
:101AA8004073034385B0A3826846FEF72BFF1D4BA6
:101AB8009C4229D003F580639C4225D0029AA389D1
:101AC800A6891BB2002B2B6802EB8202B4BF5B0015
:101AD8009B0002EB8202B2FBF3F0134A36B2A2FB80
:101AE80000356D096423002E05FB13034FEA051525
:101AF8000CDB1B013233A2FB0323C3F343132B4339
:101B08009BB2238105B0F0BD039AD8E7D9003231E2
:101B1800A2FB0131C1F3421242EA05039BB22381C1
:101B280005B0F0BD001001401F85EB5100234FF4B4
:101B380016510C22016042818380C3800381838116
:101B4800704700BF30B40A884D888C88038AC988DA
:101B58002A4322430A439BB292B223F4706313438D
:101B6800038230BC704700BF00230380438083801A
:101B7800C3807047838929B923F400531B041B0CC5
:101B8800838170479BB243F400538381704700BF41
:101B9800038B03F47F430383038B9BB219430183B5
:101BA800704700BF838919B9C3F30E038381704757
:101BB8006FEA43436FEA53439BB28381704700BF88
:101BC800838A29B923F400631B041B0C83827047A2
:101BD8009BB243F400638382704700BFC1F30801DE
:101BE800818070478088C0F308007047038A23F01B
:101BF8000F031B041B0C0382038A9BB21943018247
:101C0800704700BF838929B923F002031B041B0C0A
:101C1800838170479BB243F002038381704700BF02
:101C2800838923F400631B041B0C838183899BB283
:101C380019438181704700BF038A23F020031B04E6
:101C48001B0C0382038A9BB219430182704700BFB1
:101C5800038A29B923F480431B041B0C03827047B1
:101C68009BB243F480430382704700BF83899BB2D1
:101C780043F0010383817047838A29B923F008035D
:101C88001B041B0C838270479BB243F008038382BA
:101C9800704700BF038BDBB20383038B9BB243EA1D
:101CA80001210183704700BF838A29B923F02003EB
:101CB8001B041B0C838270479BB243F02003838272
:101CC800704700BF838A29B923F010031B041B0C3B
:101CD800838270479BB243F010038382704700BF32
:101CE800838A23F004031B041B0C8382838A9BB220
:101CF80019438182704700BF838A29B923F0020300
:101D08001B041B0C838270479BB243F0020383823F
:101D1800704700BF838A9BB21AB923EA0101818206
:101D2800704719438182704710B401F01F04C1F352
:101D380042110123012903FA04F311D002290CBF2F
:101D48001030143032B902685DF8044B22EA0303FC
:101D58000360704702685DF8044B134303607047E3
:101D68000C30EFE70388194214BF012000207047A8
:101D7800C94389B201807047C1F3421210B40123EC
:101D880001F01F04012A03FA04F316D0022A0CBF3B
:101D9800028A828A92B21340028892B24BB1090A2F
:101DA80001238B40134214BF012000205DF8044B2F
:101DB800704718465DF8044B7047828992B2134009
:101DC800EAE700BF090A01238B40DB439BB203808B
:101DD800704700BF40F0BF60024B40F40030D8604D
:101DE800704700BF00ED00E0C3785BB9037818487E
:101DF8005A09203203F01F03012101FA03F340F8C6
:101E080022307047134BF0B4D9684578827804784B
:101E18000F4EC943C1F30221C1F10407FFB20F23DA
:101E2800BD400B411340E9B20B4304F1604202F597
:101E380061421B01DBB282F800330378012203F010
:101E48001F015B098A4046F82320F0BC704700BF99
:101E580000E100E000ED00E021F0604121F07F01A9
:101E6800014B08439860704700ED00E0044A13698D
:101E780019B923EA000010617047184310617047D0
:101E880000ED00E0044A136804280CBF43F0040383
:101E980023F004031360704710E000E0014BC0B268
:101EA80018707047003C0240054A136818B923F4BB
:101EB80080731360704743F480731360704700BFEA
:101EC800003C0240054A136818B923F400731360F4
:101ED800704743F400731360704700BF003C024032
:101EE800054A136818B923F480631360704743F4F4
:101EF80080631360704700BF003C0240024A1368C9
:101F080043F4006313607047003C0240024A1368C0
:101F180043F4805313607047003C0240044B1A6935
:101F2800002A03DA0349044A59605A60704700BF1F
:101F3800003C024023016745AB89EFCD024A136993
:101F480043F0004313617047003C0240044B5A6958
:101F5800D20703D50349044A99609A60704700BFC5
:101F6800003C02403B2A19087F6E5D4C024A5369C7
:101F780043F0010353617047003C0240044B1A7858
:101F880002F0F3021A701A7810431870704700BFF5
:101F9800143C0240024B5869C0F34710704700BF19
:101FA800003C0240014B188880B27047163C024042
:101FB800024B1878AA3818BF01207047153C024018
:101FC800024B187800F00C00704700BF143C024028
:101FD800044A136919B923EA0000106170471843CD
:101FE80010617047003C0240034BDB68184214BF85
:101FF80001200020704700BF003C0240014BD86020
:10200800704700BF003C02400B4BDA68D1030AD48A
:10201800DA68D20601D505207047DA6812F0EF0FAA
:1020280003D00620704701207047DB6813F0020FC9
:1020380014BF072008207047003C024000B583B059
:1020480008238DF80730FFF7DFFF8DF807009DF8AC
:102058000730012BF7D09DF80700C0B203B05DF838
:1020680004FB00BF70B5064659B301292FD00229D9
:102078000CBF4FF400744FF44074FFF7DFFF0828DB
:1020880024D1144D2B6923F440732B612969214312
:1020980029612B6923F0F8032B612B6943F00203B4
:1020A8001E432E612B6943F480332B61FFF7C6FF73
:1020B8002B6923F002032B612B6923F0F8032B61B2
:1020C80070BD0C46FFF7BAFF0828DAD070BD4FF490
:1020D8008074F7E7003C024038B50446FFF7AEFFCE
:1020E8003CB1012C08D0022C0CBF4FF400744FF403
:1020F8004074082804D038BD08284FF48074FAD1F9
:102108000B4D2B6923F440732B612B691C432C6105
:102118002B6943F004032B612B6943F480332B6153
:10212800FFF78CFF2B6923F004032B6138BD00BF38
:10213800003C0240F8B5054616461F46FFF77EFFED
:10214800082800D0F8BD0B4C236923F440732361A1
:10215800236943F440732361236943F00103236136
:10216800C5E90067FFF76AFF236923F001032361CC
:10217800F8BD00BF003C024070B505460E46FFF7AB
:102188005DFF082800D070BD0A4C236923F4407312
:102198002361236943F400732361236943F0010336
:1021A80023612E60FFF74AFF236923F001032361AF
:1021B80070BD00BF003C024070B505460E46FFF7F3
:1021C8003DFF082800D070BD0A4C236923F44073F2
:1021D8002361236943F480732361236943F0010376
:1021E80023612E80FFF72AFF236923F0010323616F
:1021F80070BD00BF003C024070B505460E46FFF7B3
:102208001DFF082800D070BD094C236923F44073D2
:10221800236123692361236943F0010323612E703D
:10222800FFF70CFF236923F00103236170BD00BF92
:10223800003C024038B505460C46FFF7FFFE08286B
:1022480000D038BD054B18881CB9284380B21880C7
:1022580038BD80B220EA0500188038BD163C02401F
:1022680010B50446FFF7EAFE082804BF014B1C70AE
:1022780010BD00BF153C024070B506460C46154619
:10228800FFF7DCFE082807D1044B197801F00F018D
:10229800314329432143197070BD00BF143C0240EB
:1022A800034A137843F002031370FFF7C7BE00BF59
:1022B800143C0240044B054900221A605A609A6097
:1022C800DA605961704700BF003C0140FFFF7F00A2
:1022D800837933B31C4B02794179F0B404681E68E2
:1022E800E7433E401E605D6802F1804202F59E327F
:1022F8003D405D6015682C43146002689C68D543B6
:102308002C409C60D868102900EA0500D86013D0DA
:1023180001F1804303F59E33F0BC19680A431A6043
:1023280070470379016803F1804303F59E331A6807
:1023380022EA01021A607047996811439960D968C6
:102348000A43DA60F0BC7047003C014000230C22CD
:102358004271036003718371704700BF024A1369B9
:1023680018431061704700BF003C0140034B5B6994
:10237800184214BF01200020704700BF003C0140F4
:10238800014B5861704700BF003C0140054B1A687B
:102398005B69034004D0104214BF0120002070473D
:1023A80018467047003C0140014B5861704700BF18
:1023B800003C014002683749002310B422F00102B2
:1023C800212488420260036043608360C360036124
:1023D80044614DD0304B984235D0304B984239D07B
:1023E8002F4B98423DD02F4B984247D02E4B9842C6
:1023F80048D02E4B98421DD02D4B98421ED02D4BC5
:10240800984243D02C4B98421DD02C4B984221D057
:102418002B4B984225D02B4B98422FD02A4B9842D1
:1024280030D02A4B984205D0294B984206D05DF807
:10243800044B7047274A43F8942CF8E74FF03D5275
:1024480043F8AC2CF3E74FF4746243F8202C5DF8A2
:10245800044B70474FF4741243F8382C5DF8044B62
:1024680070474FF0746243F8502C5DF8044B704786
:10247800194B5DF8044B3D229A607047174A43F8A0
:10248800642CD4E7164A43F87C2CD0E73D2243F865
:10249800082CCCE7106002402860024040600240EF
:1024A800586002407060024088600240A0600240AC
:1024B800B860024010640240286402404064024050
:1024C800586402407064024088640240A06402407C
:1024D800B864024000003D20006002403D0000203A
:1024E800400F00202DE9F04182B08B6A0193CB6840
:1024F8004F698E69CD690C6A4A6AD0F800C0DFF866
:1025080050E098460B6848EA030848EA07073E4344
:1025180035432C43019B0E6B0D69224313434A6BD1
:102528004C6813438A6B0CEA0E0E134343EA0E03FE
:1025380003604269CB6A896822F007023343134378
:10254800436145608460C16002B0BDE8F08100BFAE
:102558003F801CF00023036043608360C360036115
:1025680043618361C361036243628362C36203633D
:1025780043638363704700BF036819B923F00103FD
:102588000360704743F0010303607047036819B99B
:1025980023F400430360704743F40043036070472B
:1025A800036819B923F020030360704743F0200340
:1025B8000360704741607047406880B2704700BF51
:1025C800036822B923F4002303600161704743F4D0
:1025D8000023036001617047036819B923F480235D
:1025E8000360704743F48023036070470AB9C160F1
:1025F80070470161704700BF0068C0F3C040704772
:10260800006800F001007047406900F0380070472A
:102618000B4B0C4A10B40C4CA04294BF1846104601
:102628008B004CBF436803685DF8044B21F0F02130
:1026380021F08211194214BF01200020704700BF09
:1026480000600240006402400F64024010B4094B6D
:10265800094C0A4AA04294BF1846104611F0005F80
:1026680021F0F02121F0821114BFC16081605DF872
:10267800044B7047006002400F640240006402404F
:102688000B060CD54369AAB143F080038029436146
:102698000FD0036801F01E011943016070478029BB
:1026A80007D0002AF5D1036801F01E0123EA0101D1
:1026B8000160704723F0800380294361F3D170479C
:1026C80070B4104A104E114C21F0F02323F0C315BA
:1026D800B04298BF14468DB1006800F01E0000EAB1
:1026E800D12289004CBF6068206823F0821318400B
:1026F80002D0101C18BF012070BC7047406900F060
:102708008002EEE7006002400F640240006402406D
:1027180010B4094B094C0A4AA04294BF1846104607
:1027280011F0005F21F0F02121F0821114BFC16087
:1027380081605DF8044B7047006002400F640240FE
:102748000064024008B54FF480700121FEF7BCF91F
:102758004FF480700021BDE80840FEF7B5B900BF0E
:10276800F0B544680A6891F804C0D1F80CE00E6925
:102778008D684F790D4B24F0407424F48074224303
:1027880042EA0C22426084684EEA06022A43234049
:10279800134343EA470383600A7DC36A013AD2B20E
:1027A80023F4700343EA0253C362F0BDFDF7FFC090
:1027B8000023012202750360037143718360C360C3
:1027C8000361704770B490E84400064D8468C1689E
:1027D800054B6868324322430A43034013436B6046
:1027E80070BC704700230140E030FCFF0023036009
:1027F80043608360C3607047836819B923F001039D
:102808008360704743F0010383607047436823F493
:10281800400323F4007319434160704741628262A8
:10282800704700BF436823F01F0319434160704796
:10283800054A536818B923F400035360704743F4FA
:1028480000035360704700BF00230140054A5368E6
:1028580018B923F480035360704743F4800353602E
:10286800704700BF00230140092970B41CD9A1F1A9
:102878000A0404EB4404C5680726A640A34025EAD9
:1028880006042343062AC3601AD90C2A25D90D3A0F
:10289800C46A02EB82021F23934024EA0303914097
:1028A8001943C16270BC704701EB410605690724F2
:1028B800B440B34025EA04042343062A0361E4D85C
:1028C800013A446B02EB82021F23934024EA03037C
:1028D80091401943416370BC7047073A046B02EB9F
:1028E80082021F23934024EA0303914019430163A2
:1028F80070BC7047836843F080438360704700BFB3
:102908008068C0F380507047836819B923F48063E6
:102918008360704743F4806383607047836819B9A4
:1029280023F002038360704743F00203836070471B
:102938004368013923F4604343EA413141607047F9
:10294800436819B923F400634360704743F4006394
:1029580043607047C06C80B2704700BF014B186875
:10296800704700BF08230140836819B923F48073B6
:102978008360704743F4807383607047836819B934
:1029880023F400738360704743F4007383607047D7
:10299800054A536818B923F400535360704743F449
:1029A80000535360704700BF00230140092970B4E9
:1029B8001AD801EB410605690724B440B34025EA5B
:1029C800040423430361836B0232C3F30154121BD3
:1029D800D2B202EB82021F24944023EA04039140FE
:1029E8001943816370BC7047A1F10A0404EB4404E5
:1029F800C5680726A640A34025EA06042343C3600A
:102A0800E1E700BF836B013923F4401343EA015126
:102A18008163704782B0002301930190019B1944A0
:102A28000191019B1A6002B0704700BF836823F4CC
:102A38007023194381607047836823F44013194356
:102A480081607047836843F480038360704700BFE8
:102A58008068C0F380507047436819B923F48063D5
:102A68004360704743F4806343607047436819B913
:102A780023F480534360704743F4805343607047A6
:102A880082B0002301930190019B283319440191DE
:102A9800019B186880B202B0704700BFC9B2012319
:102AA8008B4022B9426822EA0303436070474268B8
:102AB80013434360704700BF0368194214BF0120E5
:102AC80000207047C9430160704700BF4268006832
:102AD80010EA112006D0C9B201238B40134214BF5B
:102AE80001200020704700BF6FEA11210160704784
:102AF8002DE9F043022083B0204E214D0121FDF73E
:102B08009BFF06200121FDF773FF0224304669462A
:102B1800C0234FF003094FF00008012700938DF8F8
:102B280004408DF805908DF806808DF80770FDF744
:102B380067FD30236946284600938DF804408DF8D8
:102B480005908DF806808DF80770FDF759FD304621
:102B580022460621FDF7EEFD304622460721FDF705
:102B6800E9FD284622460421FDF7E4FD28462246D1
:102B78000521FDF7DFFD03B0BDE8F0830008024042
:102B880000040240174B18491B68184A70B51B0A05
:102B9800174D184C28885060A1FB03139B0800268A
:102BA800013B11462046138016815680FEF7EEF849
:102BB800114B6A889A6019467022012520469E8129
:102BC8005D801A80FEF79EF920460821FEF704FB77
:102BD80020462946FEF762F920462946BDE870409E
:102BE800FEF782B914000020779A2E008404002092
:102BF800280000200004004090040020064A074BEB
:102C0800118800FB01F083FB0031C017C0EB611194
:102C18000348FEF7B5BA00BF280000201F85EB5116
:102C280000040040704700BFF0B5324F83B0172052
:102C380001210124FDF7DCFE00250326C0233846C8
:102C4800694600938DF804408DF806508DF80750BA
:102C58008DF80560FDF7D4FC6946274800968DF885
:102C680004408DF806508DF805608DF80750FDF783
:102C7800C7FC69467023214800938DF804408DF8FD
:102C880006508DF805608DF80750FDF7B9FC4FF434
:102C9800704369461A4800938DF804408DF8065031
:102CA8008DF805608DF80750FDF7AAFC20462146EF
:102CB800FDF7C2FE20462146FDF79AFE022369462B
:102CC80038464FF440728DF8043000928DF8056054
:102CD8008DF806508DF80740FDF792FC38462246DD
:102CE8000821FDF727FD384622460921FDF722FD78
:102CF80003B0F0BD0000024000040240000802409A
:102D080000100240704700BF704700BF704700BF07
:102D1800704700BF10B5044605488021FFF722F828
:102D28000028F9D00248A1B2FEF758FF204610BD8E
:102D38000044004010B5037804466BB10748802171
:102D4800FFF710F80028F9D021780448FEF746FF6D
:102D580014F8013F002BF1D110BD00BF0044004022
:102D6800014608B50448FEF739FF03484021FEF73D
:102D7800F9FF0028F9D008BD0044004008B505480F
:102D88002021FEF7EFFF0028F9D00248FEF72AFFBE
:102D9800C0B208BD004400402DE9F0414FF40030B6
:102DA80088B00121FDF748FE284F294E0120014631
:102DB800FDF71EFE002402254FF00C08384602A934
:102DC800CDF808808DF80C508DF80D508DF80E4018
:102DD8008DF80F40FDF714FC384629460722FDF709
:102DE800A9FC384607220321FDF7A4FC4FF4E13380
:102DF800304604A90493ADF81440ADF81640ADF878
:102E08001840ADF81C40ADF81A80FEF72DFE0122DF
:102E1800304640F22551FEF787FF30460121FEF784
:102E2800A9FE4FF4E060FEF7D5FF26210322012317
:102E380001A88DF806508DF804108DF805208DF83E
:102E48000730FEF7D1FF08B0BDE8F081000002406E
:102E58000044004008B5184840F22551FEF782FFAB
:102E6800012815D0144840F22661FEF77BFF01289F
:102E780000D008BD104840F22661FEF77DFF00280B
:102E8800F7D00D4840F22661BDE80840FEF79ABF2A
:102E98000948FEF7A7FEC1B20748FEF79FFE06489D
:102EA80040F22551FEF768FF0028DBD0024840F2C7
:102EB8002551FEF787FFD5E70044004008B50548CF
:102EC8002021FEF74FFF0128F9D10248FEF78AFEBC
:102ED80008BD00BF00440040704700BF70B5042023
:102EE8008CB00121FDF784FD4FF48060012100249E
:102EF800FDF7AEFD1B4D1C488DF807400422032347
:102F0800694600928DF80430FDF77AFB02A8012685
:102F18000294039404940594FFF754FC284606A9E8
:102F280006948DF81C4008940A948DF81D608DF85D
:102F38002C60FFF715FC2346324628460C21FFF784
:102F480093FC28463146FFF719FD28463146FFF71E
:102F58000BFD28463146FFF74FFC2846FFF7CAFC11
:102F68000CB070BD00220140000802402DE9F0417C
:102F7800164D174BDFF85CC090B001244FF4006E7B
:102F88004FF4003202932846002301A94FF08068CD
:102F98004FF400574FF48076CDF80CC00493069395
:102FA80007930C930E930F93CDF820E00B92CDF876
:102FB800048005940D9409970A96FFF793FA28461A
:102FC8002146FFF7D9FA10B0BDE8F081106402403D
:102FD8004C2201400C050020B833000800000020F6
:102FE8005C040020600400201005002070B5154C1A
:102FF800154D86B0FFF77CFD6088FFF7C3FDFFF72E
:10300800CBFEFDF731F91148FFF774FC01AE2288B9
:103018000F4B91B240F6E44202FB01F285FB02013C
:103028001144D217C2EBE1220021626031600291A3
:10303800039104910591013BFDD1B1B20548FEF71A
:10304800CDFDE4E77C0400208100088000220140D7
:10305800FFFF080000440040002103E00B4B5B58D1
:10306800435004310A480B4B42189A42F6D30A4A95
:1030780002E0002342F8043B084B9A42F9D3FDF7DB
:103088006DF900F01FF8FFF7B1FF7047B83300087B
:10309800000000205C0400206004002010050020CF
:1030A800FEE7000008B50021044600F08BF8044B49
:1030B8001868C36B03B19847204600F06FF900BF4A
:1030C8008433000870B50F4E0F4D761BB61018BF2D
:1030D800002405D0013455F8043B9847A642F9D19D
:1030E8000A4E0B4D761B00F04DF9B61018BF0024A0
:1030F80006D0013455F8043B9847A642F9D170BD73
:1031080070BD00BFAC330008AC330008B43300080E
:10311800AC33000870B4840746D0541E002A41D04E
:10312800CDB2034602E0621EE4B3144603F8015B25
:103138009A07F8D1032C2ED9CDB245EA05250F2CD4
:1031480045EA054519D903F110022646103E0F2E0F
:1031580042F8105C42F80C5C42F8085C42F8045CE7
:1031680002F11002F2D8A4F1100222F00F0204F0CA
:103178000F041032032C13440DD91E462246043A7C
:10318800032A46F8045BFAD8221F22F0030204320D
:10319800134404F003042CB1C9B21C4403F8011B06
:1031A800A342FBD170BC704714460346C2E700BF78
:1031B800024B13B1024800F06FB8704700000000DE
:1031C800AD3200082DE9F04F314B83B01B680093F6
:1031D80003F5A47381460E460193009BD3F848710A
:1031E80027B3DDF804A07C68651E0ED4013407EB14
:1031F80084044FF00008E6B1D4F80031B34218D087
:10320800013D6B1CA4F10404F5D1224B73B17B681A
:10321800002B36D13B68002B34D03846CAF8003032
:10322800AFF30080DAF80070002FDCD103B0BDE8FE
:10323800F08F7B682268013BAB420CBF7D60C4F80D
:103248000080002ADCD0D7F88831D7F804B00121F3
:10325800A940194208D190477B685B45BDD1DAF88F
:103268000030BB42CCD0B8E7D7F88C31194204D132
:103278004846D4F880109047EEE7D4F8800090478D
:10328800EAE73B68BA461F46002FACD1CEE700BF3D
:10329800843300080000000001460020024603466F
:1032A80000F016B838B5084B084DED1AAC1018BF29
:1032B800ED1805D0013C55F8043D9847002CF9D18C
:1032C800BDE8384000F064B8B4330008B8330008EB
:1032D8002DE9F047254C2568D5F84841064688462B
:1032E80092469946CCB360681F2818DC431C7EB10F
:1032F80004EB80050121C5F888A0D4F8887101FA8B
:1033080000F21743022EC4F88871C5F808911ED040
:103318000230636044F820800020BDE8F087144B39
:1033280003B34FF4C870AFF300800446D0B1D5F8AA
:103338004831002780E88800C5F84841384601230D
:10334800C4F88871C4F88C71002EE1D0D0E7D4F8A5
:103358008C110A43C4F88C21DAE705F5A674C5F880
:103368004841C0E74FF0FF30BDE8F08784330008DC
:1033780000000000FEE700BF43000000300000200E
:1033880000000000F8B500BFF8BC08BC9E467047B6
:0C339800F8B500BFF8BC08BC9E467047AA
:0833A40040CEFF7F0100000094
:0833AC00B9310008AD01000871
:0433B4008901000883
:1033B80000000000000000000000000001020304FB
:1033C80006070809007A030A000000000102030446
:1033D8000102030406070809E803F40100000000DD
:1033E800000000001C03002084030020EC030020E0
:1033F80000000000000000000000000000000000C5
:1034080000000000000000000000000000000000B4
:1034180000000000803300080000000000000000E9
:103428000000000000000000000000000000000094
:103438000000000000000000000000000000000084
:103448000000000000000000000000000000000074
:103458000000000000000000000000000000000064
:103468000000000000000000000000000000000054
:103478000000000000000000000000000000000044
:103488000000000000000000010000000000000033
:103498000E33CDAB34126DE6ECDE05000B000000F8
:1034A8000000000000000000000000000000000014
:1034B8000000000000000000000000000000000004
:1034C80000000000000000000000000000000000F4
:1034D80000000000000000000000000000000000E4
:0C38080000000000000000003000002064
:0438140000000000B0
:04000005080030615E
:00000001FF
